20151208-02:44:48: incomeing:  8=FIXT.1.1|9=80|35=U102|49=W000528Y0003|56=ggqqjy|34=4|52=20151208-10:51:50.016|10180=4|10181=2|10=223|
20151208-02:44:48: outgoing:  8=FIXT.1.1|9=304|35=D|34=208|49=ggqqjy|52=20151208-02:44:48|56=W000528Y0003|11=00000001|22=102|38=1.00|40=2|44=0.0600|48=10000175|54=1|58= |59=0|60=20151208-10:44:48.093|77=O|110=0.00|152=0.0000|203=1|453=4|448=0899003926|447=5|452=5|448=081900|447=C|452=1|448=0|447=D|452=4001|448= |447=C|452=38|522=104|1090=0|1180=040|10=108|
